:100000000C9434000C943E000C943E000C943E0082
:100010000C943E000C943E000C943E000C943E0068
:100020000C943E000C943E000C943E000C943E0058
:100030000C943E000C943E000C943E000C943E0048
:100040000C943E000C943E000C943E000C943E0038
:100050000C943E000C943E000C943E000C943E0028
:100060000C943E000C943E0011241FBECFEFD8E04C
:10007000DEBFCDBF0E9442000C9462000C940000D1
:10008000259A0895259A86E090E030E225B123274D
:1000900025B92FEF40E752E0215040405040E1F7B2
:1000A00000C00000019791F790E28FEF25EA3EE053
:1000B000815020403040E1F700C0000085B1892721
:0800C00085B9F3CFF894FFCFDE
:00000001FF
